:020000040800F2
:1000000000000120C1150008A1060008A50600088F
:10001000A9060008AD060008B106000800000000AF
:10002000000000000000000000000000B50600080D
:10003000B906000800000000BD060008C10600085F
:100040000516000805160008051600080516000824
:100050000516000805160008051600080516000814
:100060000516000805160008051600080516000804
:1000700005160008051600080516000805160008F4
:1000800005160008051600080516000805160008E4
:1000900005160008051600080516000805160008D4
:1000A00005160008051600080516000805160008C4
:1000B00005160008051600080516000805160008B4
:1000C00005160008051600080516000805160008A4
:1000D00005160008A104000805160008051600080A
:1000E0000516000805160008051600080516000884
:1000F0000516000805160008051600080516000874
:100100000516000805160008051600080516000863
:100110000516000805160008051600080516000853
:100120000516000805160008051600080516000843
:1001300000000000000000000000000000000000BF
:1001400000000000000000000000000000000000AF
:10015000000000000000000000000000000000009F
:10016000000000000000000000000000000000008F
:10017000000000000000000000000000000000007F
:10018000000000000000000000000000000000006F
:10019000000000000000000000000000000000005F
:1001A000000000000000000000000000000000004F
:1001B000000000000000000000000000000000003F
:1001C000000000000000000000000000000000002F
:1001D000000000000000000000000000000000001F
:0401E0005FF8E0F1F3
:1001E40008B540F25040074BC2F200001B1A062B20
:1001F40000D808BD40F20003C0F20003002BF8D081
:100204009847F6E75304002008B540F2504040F206
:100214005043C2F20003C2F200001B1A9B1003EB0E
:10022400D373591000D108BD40F20002C0F200029D
:10023400002AF8D09047F6E710B540F25044C2F2D5
:100244000004237873B9FFF7CBFF40F20003C0F238
:1002540000032BB140F2E410C0F60000AFF30080BD
:100264000123237010BD00BF08B540F20003C0F2A3
:1002740000034BB140F2E41040F25441C0F60000D8
:10028400C2F20001AFF3008040F25040C2F200001D
:1002940003682BB140F20003C0F2000303B1984796
:1002A400BDE80840B0E700BF70B54FF4006582B008
:1002B400C4F201052420012100F05AFB4FF480769A
:1002C40010220323284601A94FF4A0548DF80720D7
:1002D4008DF80630C4F20104ADF8046000F0C6FEE7
:1002E40028463146042501F0BFF80DEB05012046F0
:1002F400ADF8045000F0BAFE2046294601F0B4F8E7
:1003040002B070BD08B56FF0040000F021FE40F2A9
:100314001003C2F200031A684DF68363C4F21B3360
:10032400A3FB0212C2F34752C2EB421140F26C43E8
:10033400C2F2000302EB8101C9001A70598008BDA2
:1003440040F26C43C2F200031A784EF2100302FB2F
:1003540000F0CEF200030021586099601A68194633
:1003640042F001021A600A684EF2100302F0011210
:10037400012ACEF20003F6D01968002221F001010F
:1003840019609A60704700BF40F26C43C2F20003E8
:100394005A884EF2100302FB00F0CEF20003002153
:1003A400586099601A68194642F001021A600A6896
:1003B4004EF2100302F00112012ACEF20003F6D02D
:1003C4001968002221F0010119609A60704700BF8A
:1003D400704700BF4FF46051C4F201010A884FF422
:1003E40060535206C4F20103F8D5C2B29A80704732
:1003F400F0B54FF4605487B0C4F2010407460121FC
:1004040044F204004FF4006500F0B2FAC4F20105AE
:10041400204600F02FFB0326284669464FF400725D
:100424001823ADF800208DF803308DF8026000F039
:100434001DFE69464FF4806228460423ADF800206F
:1004440001258DF8033000F011FE252301A88DF855
:1004540004308DF805608DF806608DF8075000F0C3
:1004640021FD002320460C2202A9ADF80C30ADF882
:100474000E30ADF81030ADF81430ADF812200297FC
:1004840000F054FB20462A4640F2255100F0DEFBE2
:100494002046294600F0CCFB07B0F0BD4FF4605075
:1004A40038B5C4F2010040F2255100F0C3FC00B994
:1004B40038BD4FF46050C4F2010000F033FC40F248
:1004C4007043C2F200031A88C0B21104F0D402F4DB
:1004D400804189B279B90D2816D0551C40F2744474
:1004E400ADB2C2F20004C2F30D02C72DA0541D80A8
:1004F40088BF198038BD0A280ABF6FEA4242002229
:100504006FEA52421A8038BD42F480421A8038BDE4
:100514004FF48053C4F20203196810B441F001018E
:10052400196059680022CFF6FF020A405A601A681F
:10053400002122F0847222F480321A601A6883B097
:1005440022F480221A605C684FF41F0024F4FE0435
:100554005C6098600091019119681A4641F48031F9
:10056400196003E0009BB3F5A06F09D0136803F48E
:1005740000330193009B01330093019B002BF1D0C6
:100584004FF48053C4F202031B6813F4003318BF02
:1005940001230193019B012B0AD04FF46D43CEF24A
:1005A40000034FF000629A6003B05DF8044B70479B
:1005B4004FF40052C4F2020211684FF4805341F028
:1005C400100111601168C4F2020321F003011160EB
:1005D4001068194640F0020010605A685A605A6860
:1005E4005A605A6842F480625A605A6822F47C1253
:1005F4005A605A6842F4E8125A601A6842F08072EB
:100604001A600A684FF480539201C4F20203F8D5C9
:1006140059681A4621F003015960596841F00201F2
:100624005960536803F00C03082BFAD1B5E700BFF7
:100634004FF48053C4F202035A6802F00C02082AF1
:100644001CBF4FF49052C0F27A0210D15A68596814
:10065400C2F38342C80302F1020217D55B6899030F
:1006640014D44FF49053C0F27A0303FB02F24FF414
:100674008053C4F20203596840F20003C2F200033B
:10068400C1F30311595CCA401A6170474FF41063F7
:10069400C0F23D0303FB02F2E9E700BF704700BF6D
:1006A400FEE700BFFEE700BFFEE700BFFEE700BFB6
:1006B400704700BF704700BF704700BF704700BF5E
:1006C4004FF48053C4F202031968002241F001017F
:1006D40019605968CFF6FF020A405A6019684FF44E
:1006E4001F0221F0847121F480311960196821F40A
:1006F40080211960596821F4FE0159609A6070479D
:100704004FF48053C4F202031A68B0F5803F22F418
:1007140080321A601A6822F480221A6008D0B0F578
:10072400802F04D11A6842F4A0221A6070477047DF
:100734001A6842F480321A60704700BF82B0002306
:100744004FF480520193C4F2020213689B030FD446
:10075400019B01330193019BB3F5A06FF5D14FF4D5
:100764008053C4F202031868C0F3404002B07047DB
:10077400019B01330193019BF1E700BF4FF48053C8
:10078400C4F202031A6822F0F80242EAC0001860B8
:10079400704700BF0023C4F242231860704700BFB3
:1007A4004FF48053C4F202035A6822F47C121143BA
:1007B40008435860704700BF6023C4F242231860A6
:1007C400704700BF4FF48053C4F202035A6822F00A
:1007D40003021043586070474FF48053C4F202037D
:1007E400586800F00C0070474FF48053C4F20203C1
:1007F4005A6822F0F0021043586070474FF4805357
:10080400C4F202035A6822F4E0621043586070474D
:100814004FF48053C4F202035A6822F4605242EA4D
:10082400C0005860704700BF41F20903C4F20203DC
:100834001A7819B922EA000018707047104318702A
:10084400704700BFD823C4F242231860704700BF2A
:100854004FF48053C4F202035A6822F44042104316
:10086400586070474FF48153C4F2020300220128F8
:100874001A701A7005D0042802D105221A70704724
:1008840070471870704700BF4FF49063C4F242235E
:10089400186070474FF48053C4F202031A6A10437D
:1008A4001862704740F23C43C4F242231860704718
:1008B4004FF48053C4F202035A6810B402F00C02DD
:1008C400042A01D0082A2AD04FF49051C0F27A01A8
:1008D40001604FF48052C4F20202546840F21403DF
:1008E400C2F20003C4F303141C5DE1404160546888
:1008F400C4F302241C5D21FA04F484605468C4F334
:10090400C2241C5DE140C16052685DF8044BC2F32F
:10091400813213441B7CB1FBF3F1016170475968C8
:100924005A68C1F38341D40301F102010AD55B681B
:100934009A0307D44FF49053C0F27A0303FB01F1F6
:100944000160C6E74FF41063C0F23D0303FB01F1FD
:100954000160BEE74FF48053C4F202035A6919B927
:1009640022EA00005861704710435861704700BF85
:100974004FF48053C4F202039A6919B922EA0000C1
:100984009861704710439861704700BF4FF48053DB
:10099400C4F20203DA6919B922EA0000D861704787
:1009A4001043D861704700BF4FF48053C4F2020370
:1009B400DA6819B922EA0000D86070471043D86099
:1009C400704700BF4FF48053C4F202031A6919B987
:1009D40022EA00001861704710431861704700BF95
:1009E4004FF48863C4F24223186070474C23C4F266
:1009F40042231860704700BF41F20703C4F20203A8
:100A0400187070474309012B0ED0022B4FF480530A
:100A1400C4F202030CBF1B6A5B6A00F01F0023FAD6
:100A240000F000F0010070474FF48053C4F2020359
:100A34001B6800F01F0023FA00F000F0010070476B
:100A44004FF48053C4F202035A6A42F080725A622D
:100A5400704700BF4FF48053C4F202039B681842EE
:100A64000CBF00200120704741F20A03C4F20203C4
:100A74001870704708B54FF46053C4F201039842EC
:100A840024D04FF48843C4F2000398422AD04FF490
:100A94009043C4F20003984230D04FF49843C4F218
:100AA4000003984236D04FF4A043C4F200039842A6
:100AB40000D008BD4FF480100121FFF783FFBDE88B
:100AC40008404FF480100021FFF77CBF4FF48040B2
:100AD4000121FFF769FFBDE808404FF48040002181
:100AE400FFF762BF4FF400300121FFF76BFFBDE851
:100AF40008404FF400300021FFF764BF4FF480201A
:100B04000121FFF75FFFBDE808404FF4802000217A
:100B1400FFF758BF4FF400200121FFF753FFBDE852
:100B240008404FF400200021FFF74CBF038ACA8815
:100B340023F440531B041B0C134330B503828389F5
:100B440004468A88088923F4B0530D4623F00C0325
:100B5400498902431B040A431B0C13439BB2A38120
:100B6400A38AAA8923F440731B041B0C87B0134384
:100B7400A38201A8FFF79CFEA0890499039B4FF46C
:100B84006052C4F20102944208BF0B4600B22A68C4
:100B9400002803EB8303B4BF5200920003EB8303EA
:100BA400B3FBF2F348F21F52C5F2EB12A2FB0301AE
:100BB4006425490901FB1533A089090100B2002805
:100BC400B5BFDB001B0132333233B5BFA2FB0302D6
:100BD400A2FB0302C2F34212C2F34312114389B2CD
:100BE400218107B030BD00BF00234FF416510C2201
:100BF400016042818380C38003818381704700BF89
:100C040030B40A884D88038A8C882A43C98823F41F
:100C1400706322431B041B0C0A4313439BB20382DD
:100C240030BC70470023038043808380C3807047B7
:100C3400838929B923F400531B041B0C8381704757
:100C44009BB243F400538381704700BF01F01F033C
:100C540010B4C1F342110124A14204FA03F308BF02
:100C64000C3003D002290CBF1030143004682AB9A8
:100C740024EA030303605DF8044B704723430360D5
:100C84005DF8044B704700BF838A9BB21AB923EA0C
:100C9400010181827047194381827047038A23F0DE
:100CA4000F031B041B0C0382038A9BB219430182AA
:100CB400704700BF838923F400631B041B0C8381EA
:100CC40083899BB219438181704700BF838929B905
:100CD40023F002031B041B0C838170479BB243F077
:100CE40002038381704700BF038A23F020031B049F
:100CF4001B0C0382038A9BB219430182704700BF15
:100D0400038A29B923F480431B041B0C0382704714
:100D14009BB243F480430382704700BFC1F30801D0
:100D2400818070478088C0F30800704783899BB234
:100D340043F0010383817047038BDBB20383038B8E
:100D44009BB243EA01210183704700BF038B03F484
:100D54007F430383038B9BB219430183704700BF16
:100D6400838A29B923F020031B041B0C8382704758
:100D74009BB243F020038382704700BF838A29B962
:100D840023F010031B041B0C838270479BB243F0B7
:100D940010038382704700BF838A29B923F00803B4
:100DA4001B041B0C838270479BB243F008038382AD
:100DB400704700BF838919B9C3F30E038381704759
:100DC4006FEA43436FEA53439BB28381704700BF8A
:100DD400838A29B923F400631B041B0C83827047A4
:100DE4009BB243F400638382704700BF838A23F07D
:100DF40004031B041B0C8382838A9BB219438182E4
:100E0400704700BF838A29B923F002031B041B0C1B
:100E1400838270479BB243F002038382704700BF12
:100E2400038819420CBF002001207047C94389B2CE
:100E340001807047C1F3421310B401F01F02012472
:100E4400012B04FA02F417D0022B0CBF028A828A07
:100E540092B222400123090A03FA01F103885DF8E2
:100E6400044B9BB219420CBF00200120002A0CBF86
:100E7400002000F001007047828992B22240E9E725
:100E8400090A01238B40DB439BB20380704700BFF8
:100E940040F0BF604FF46D4340F40030CEF20003E5
:100EA400D8607047C37830B473B90378012103F074
:100EB4001F02914030BC5A094FF461432032CEF2F4
:100EC400000343F8221070474FF46D43CEF2000341
:100ED400DB684478DB43C3F302230F22C3F104012C
:100EE40022FA03F38C408578017803EA0502224351
:100EF40001F160431201D2B203F5614383F8002388
:100F04000278012102F01F03994030BC4FF4614381
:100F14005209CEF2000343F82210704721F06041D9
:100F240021F07F014FF46D430843CEF20003986033
:100F3400704700BF4FF46D43CEF200031A6919B92C
:100F440022EA00001861704710431861704700BF1F
:100F54004EF21003CEF200031A6804280CBF42F0CC
:100F6400040222F004021A60704700BF08B54FF46F
:100F74000063C4F20103984230D04FF44063C4F2DA
:100F84000103984234D04FF48053C4F201039842D1
:100F940038D04FF4A053C4F2010398423CD04FF42C
:100FA400C053C4F20103984240D04FF4E053C4F25A
:100FB4000103984244D04FF40053C4F20103984211
:100FC40000D008BD4FF480700121FFF7EDFCBDE8AF
:100FD40008404FF480700021FFF7E6BC0420012193
:100FE400FFF7E2FCBDE8084004200021FFF7DCBC69
:100FF40008200121FFF7D8FCBDE8084008200021A3
:10100400FFF7D2BC10200121FFF7CEFCBDE8084059
:1010140010200021FFF7C8BC20200121FFF7C4FCE9
:10102400BDE8084020200021FFF7BEBC402001217C
:10103400FFF7BAFCBDE8084040200021FFF7B4BC2C
:1010440080200121FFF7B0FCBDE80840802000218A
:10105400FFF7AABC08B501200146FFF7A5FCBDE8CF
:10106400084001200021FFF79FBC00BFCA7830B4BC
:10107400D30648BF8B7802F00F0448BF1C430B888B
:1010840013F0FF0F34D0482A016800F09C80282A0E
:1010940000F00181DD0744BF21F00F0121439D07CA
:1010A40044BF21F0F00141EA04115D0744BF21F47B
:1010B400706141EA04211D0744BF21F4704141EAF3
:1010C4000431DD0644BF21F4702141EA04419D0648
:1010D40044BF21F4700141EA04515D0644BF21F08C
:1010E400706141EA04611D0648BF64F31F71016029
:1010F400FF2B33D9482A416832D0282A00F09A803D
:10110400DA0544BF21F00F0121439D0544BF21F0BE
:10111400F00141EA04115A0544BF21F4706141EA27
:1011240004211D0544BF21F4704141EA0431DA046D
:1011340044BF21F4702141EA04419D0444BF21F4D9
:10114400700141EA04515A0444BF21F0706141EA3C
:1011540004611B0448BF64F31F71416030BC7047D5
:1011640003F4807292B2002A40F0CE8003F400723D
:1011740092B2002A40F0C28003F4806292B2002A44
:1011840040F0D98003F4006292B2002A40F0CD808E
:1011940003F4805292B2002A40F0C18003F400525A
:1011A40092B2002A40F0B58003F4804292B2002A41
:1011B40040F0C78003F400439BB2002BCDD064F30E
:1011C4001F710361C9E713F0010518BF056103F03E
:1011D400020518BF21F00F01ADB218BF2143002D45
:1011E40040F0208103F00405ADB2002D40F01481DD
:1011F40003F00805ADB2002D40F0088103F010059E
:10120400ADB2002D40F0FC8003F02005ADB2002DFE
:1012140040F0F08003F04005ADB2002D40F0E480D2
:1012240003F08005ADB2002D3FF461AF64F31F718C
:1012340005615CE703F4807292B2002A40F0AB804F
:1012440003F4007292B2002A40F09F8003F480629B
:1012540092B2002A40F0938003F4006292B2002A12
:1012640040F0878003F4805292B2002A7BD103F4C9
:10127400005292B2002A70D103F4804292B2002A42
:1012840065D103F400439BB2002B3FF466AF64F3D3
:101294001F71436161E713F0010518BF456103F055
:1012A400020518BF21F00F01ADB218BF2143002D74
:1012B40040F08E8003F00405ADB2002D40F0828032
:1012C40003F00805ADB2002D76D103F01005ADB2E0
:1012D400002D6BD103F02005ADB2002D60D103F0D9
:1012E4004005ADB2002D79D103F08005ADB2002DDB
:1012F4003FF4FDAE64F31F714561F8E621F0F0019F
:1013040041EA0411026137E721F00F012143026130
:101314002CE721F4700141EA0451026144E721F40D
:10132400702141EA0441026138E721F4704141EA45
:10133400043102612CE721F4706141EA0421026165
:1013440020E721F0706141EA0461026132E721F093
:10135400706141EA0461426193E721F4700141EA5A
:101364000451426188E721F4702141EA0441426159
:101374007DE721F4704141EA0431426172E721F4CE
:10138400706141EA0421426166E721F0F00141EA1B
:10139400041142615AE721F00F01214342614FE7F2
:1013A40021F4700141EA0451456198E721F4702168
:1013B40041EA044145618DE721F4704141EA043179
:1013C400456182E721F4706141EA0421456177E7D0
:1013D40021F0F00141EA041145616BE721F07061ED
:1013E40041EA046145617FE721F0706141EA0461EB
:1013F400056115E721F4700141EA0451056109E72B
:1014040021F4702141EA04410561FDE621F47041B3
:1014140041EA04310561F1E621F4706141EA0421F5
:101424000561E5E621F0F00141EA04110561D9E620
:101434004FF6FF710222042301808270C37070474B
:10144400836819420CBF002001207047806880B275
:10145400704700BFC36819420CBF002001207047C9
:10146400C06880B2704700BF016170474161704736
:101474000AB9416170470161704700BFC16070479C
:1014840041F4803383618161836183698369704737
:101494000023C4F2010310B41C684FF6807222408A
:1014A400114341EA001018605DF8044B704700BF17
:1014B4001C23C4F220231860704700BF00284FF09B
:1014C4000003C4F2010300F44012B4BFDB695B689B
:1014D400B2F5401F30B484B21DD0C20255BF420DD4
:1014E400C0F30342120103254CBF05FA02F204FAC9
:1014F40002F223EA020343F0706319B1420D1201B0
:10150400944023430022C4F201020028B4BFD361F3
:10151400536030BC70470022C4F20102556823F0C6
:10152400706325F070655560E7E700BF01F00303C1
:101534009B000F229A4000FA03F301F0FC0101F131
:10154400804101F58031886820EA02028A608A6855
:1015540013438B60704700BFDC23C4F22023186060
:10156400704700BF08B5FEF7CDFEFEF79DFE4FF4B1
:101574000060C4F201004FF48071FFF777FF4FF46D
:10158400A0500421C4F20100FFF76EFF4FF49670DF
:10159400FEF7FAFE4FF40060C4F201004FF48071CC
:1015A400FFF762FF4FF4A050C4F201000421FFF7DB
:1015B4005DFF4FF49670FEF7E7FED8E7002103E0E5
:1015C4000A4B5B584350043109480A4B42189A426B
:1015D400F6D3094A02E0002342F8043B074B9A423F
:1015E400F9D3FEF795FFFFF7BDFF704738170008E2
:1015F400000000205004002050040020A405002016
:10160400FEE70000014600200246034600F01AB837
:1016140038B541F2387441F23475C0F60005C0F6AD
:101624000004641BA41018BF05EB840505D0013C1D
:1016340055F8043D9847002CF9D1BDE8384000F036
:101644006DB800BFF0B541F21074C0F6000426680E
:1016540085B0D6F848410746002C43D065681F2D55
:1016640021DD40F20004C0F200041CB94FF0FF3049
:1016740005B0F0BD4FF4C870039102920193AFF32B
:10168400008003990446029A019B0028EED0D6F804
:1016940048510020256060600546C6F84841C4F8FA
:1016A4008801C4F88C013FB96B1C002002356360CB
:1016B40044F8251005B0F0BD0126AE4004EB8500CA
:1016C400C0F88820D4F88821022F42EA0602C4F820
:1016D4008821C0F8083102BFD4F88C311E43C4F805
:1016E4008C61E1E706F5A674C6F84841B6E700BF89
:1016F40040F20003C0F200032BB141F21560C0F6C2
:101704000000FFF77FBF704743000000280000205F
:10171400F8B500BFF8BC08BC9E467047F8B500BFDA
:08172400F8BC08BC9E467047AA
:08172C00F51600086D0200082B
:041734003D0200086A
:101738000000000000000000010203040607080979
:1017480000A24A040000000001020304010203048D
:101758000607080902040608000000001403002018
:101768007C030020E40300200000000000000000CB
:101778000000000000000000000000000000000061
:101788000000000000000000000000000C17000826
:101798000000000000000000000000000000000041
:1017A8000000000000000000000000000000000031
:1017B8000000000000000000000000000000000021
:1017C8000000000000000000000000000000000011
:1017D8000000000000000000000000000000000001
:1017E80000000000000000000000000000000000F1
:1017F80000000000000000000000000000000000E1
:1018080001000000000000000E33CDAB34126DE67D
:10181800ECDE05000B0000000000000000000000E6
:1018280000000000000000000000000000000000B0
:1018380000000000000000000000000000000000A0
:101848000000000000000000000000000000000090
:101858000000000000000000000000000000000080
:04000005080015C119
:00000001FF
